{"abi":[{"type":"constructor","inputs":[{"name":"_jobEscrow","type":"address","internalType":"address"}],"stateMutability":"nonpayable"},{"type":"function","name":"acceptApplication","inputs":[{"name":"applicationId","type":"uint256","internalType":"uint256"}],"outputs":[],"stateMutability":"nonpayable"},{"type":"function","name":"getApplication","inputs":[{"name":"applicationId","type":"uint256","internalType":"uint256"}],"outputs":[{"name":"","type":"tuple","internalType":"struct IApplicationRegistry.Application","components":[{"name":"applicationId","type":"uint256","internalType":"uint256"},{"name":"jobId","type":"uint256","internalType":"uint256"},{"name":"freelancer","type":"address","internalType":"address"},{"name":"status","type":"uint8","internalType":"enum IApplicationRegistry.ApplicationStatus"},{"name":"proposalURI","type":"string","internalType":"string"},{"name":"createdAt","type":"uint256","internalType":"uint256"},{"name":"updatedAt","type":"uint256","internalType":"uint256"}]}],"stateMutability":"view"},{"type":"function","name":"getFreelancerApplicationCount","inputs":[{"name":"freelancer","type":"address","internalType":"address"}],"outputs":[{"name":"","type":"uint256","internalType":"uint256"}],"stateMutability":"view"},{"type":"function","name":"getFreelancerApplications","inputs":[{"name":"freelancer","type":"address","internalType":"address"}],"outputs":[{"name":"","type":"uint256[]","internalType":"uint256[]"}],"stateMutability":"view"},{"type":"function","name":"getJobApplicationCount","inputs":[{"name":"jobId","type":"uint256","internalType":"uint256"}],"outputs":[{"name":"","type":"uint256","internalType":"uint256"}],"stateMutability":"view"},{"type":"function","name":"getJobApplications","inputs":[{"name":"jobId","type":"uint256","internalType":"uint256"}],"outputs":[{"name":"","type":"uint256[]","internalType":"uint256[]"}],"stateMutability":"view"},{"type":"function","name":"hasApplied","inputs":[{"name":"jobId","type":"uint256","internalType":"uint256"},{"name":"freelancer","type":"address","internalType":"address"}],"outputs":[{"name":"","type":"bool","internalType":"bool"}],"stateMutability":"view"},{"type":"function","name":"jobEscrow","inputs":[],"outputs":[{"name":"","type":"address","internalType":"contract IJobEscrow"}],"stateMutability":"view"},{"type":"function","name":"nextApplicationId","inputs":[],"outputs":[{"name":"","type":"uint256","internalType":"uint256"}],"stateMutability":"view"},{"type":"function","name":"rejectApplication","inputs":[{"name":"applicationId","type":"uint256","internalType":"uint256"}],"outputs":[],"stateMutability":"nonpayable"},{"type":"function","name":"submitApplication","inputs":[{"name":"jobId","type":"uint256","internalType":"uint256"},{"name":"proposalURI","type":"string","internalType":"string"}],"outputs":[{"name":"applicationId","type":"uint256","internalType":"uint256"}],"stateMutability":"nonpayable"},{"type":"function","name":"withdrawApplication","inputs":[{"name":"applicationId","type":"uint256","internalType":"uint256"}],"outputs":[],"stateMutability":"nonpayable"},{"type":"event","name":"ApplicationAccepted","inputs":[{"name":"applicationId","type":"uint256","indexed":true,"internalType":"uint256"},{"name":"jobId","type":"uint256","indexed":true,"internalType":"uint256"},{"name":"freelancer","type":"address","indexed":true,"internalType":"address"},{"name":"timestamp","type":"uint256","indexed":false,"internalType":"uint256"}],"anonymous":false},{"type":"event","name":"ApplicationRejected","inputs":[{"name":"applicationId","type":"uint256","indexed":true,"internalType":"uint256"},{"name":"jobId","type":"uint256","indexed":true,"internalType":"uint256"},{"name":"freelancer","type":"address","indexed":true,"internalType":"address"},{"name":"timestamp","type":"uint256","indexed":false,"internalType":"uint256"}],"anonymous":false},{"type":"event","name":"ApplicationSubmitted","inputs":[{"name":"applicationId","type":"uint256","indexed":true,"internalType":"uint256"},{"name":"jobId","type":"uint256","indexed":true,"internalType":"uint256"},{"name":"freelancer","type":"address","indexed":true,"internalType":"address"},{"name":"proposalURI","type":"string","indexed":false,"internalType":"string"},{"name":"timestamp","type":"uint256","indexed":false,"internalType":"uint256"}],"anonymous":false},{"type":"event","name":"ApplicationWithdrawn","inputs":[{"name":"applicationId","type":"uint256","indexed":true,"internalType":"uint256"},{"name":"jobId","type":"uint256","indexed":true,"internalType":"uint256"},{"name":"freelancer","type":"address","indexed":true,"internalType":"address"},{"name":"timestamp","type":"uint256","indexed":false,"internalType":"uint256"}],"anonymous":false},{"type":"error","name":"AlreadyApplied","inputs":[]},{"type":"error","name":"ApplicationNotFound","inputs":[]},{"type":"error","name":"CannotApplyToOwnJob","inputs":[]},{"type":"error","name":"InvalidApplicationStatus","inputs":[]},{"type":"error","name":"InvalidJob","inputs":[]},{"type":"error","name":"JobNotOpen","inputs":[]},{"type":"error","name":"NotClient","inputs":[]},{"type":"error","name":"NotFreelancer","inputs":[]},{"type":"error","name":"ReentrancyGuardReentrantCall","inputs":[]}],"bytecode":{"object":"0x60a0604052348015600e575f80fd5b5060405161129c38038061129c833981016040819052602b91603f565b60015f556001600160a01b0316608052606a565b5f60208284031215604e575f80fd5b81516001600160a01b03811681146063575f80fd5b9392505050565b6080516112056100975f395f81816101cc0152818161026a015281816107160152610af401526112055ff3fe608060405234801561000f575f80fd5b50600436106100b1575f3560e01c80638e359a3a1161006e5780638e359a3a14610160578063a39bf5441461017f578063b0d83db8146101c7578063c5e83e9714610206578063ce58518414610219578063f1d5314a1461022c575f80fd5b806309fd8d30146100b55780631f2f4bfd146100db5780632084ea53146100fb578063625338cb14610110578063747143b91461011857806389f18dd014610138575b5f80fd5b6100c86100c3366004610de4565b61023f565b6040519081526020015b60405180910390f35b6100ee6100e9366004610e5b565b610574565b6040516100d29190610eb4565b61010e610109366004610e5b565b6106d0565b005b6001546100c8565b61012b610126366004610e5b565b610a35565b6040516100d29190610f3e565b6100c8610146366004610f94565b6001600160a01b03165f9081526004602052604090205490565b6100c861016e366004610e5b565b5f9081526003602052604090205490565b6101b761018d366004610faf565b5f9182526005602090815260408084206001600160a01b0393909316845291905290205460ff1690565b60405190151581526020016100d2565b6101ee7f000000000000000000000000000000000000000000000000000000000000000081565b6040516001600160a01b0390911681526020016100d2565b61010e610214366004610e5b565b610a94565b61012b610227366004610f94565b610c45565b61010e61023a366004610e5b565b610cac565b5f610248610dbc565b604051636efa440d60e01b8152600481018590525f9081906001600160a01b037f00000000000000000000000000000000000000000000000000000000000000001690636efa440d906024016040805180830381865afa1580156102ae573d5f803e3d5ffd5b505050506040513d601f19601f820116820180604052508101906102d29190610fdd565b90925090506001600160a01b0382166102fe5760405163038e47a360e51b815260040160405180910390fd5b5f81600581111561031157610311610e72565b1461032f5760405163d76ebd0f60e01b815260040160405180910390fd5b336001600160a01b0383160361035857604051637e91de0760e01b815260040160405180910390fd5b5f86815260056020908152604080832033845290915290205460ff16156103915760405162540c0360e11b815260040160405180910390fd5b60018054905f6103a08361100d565b9190505592506040518060e00160405280848152602001878152602001336001600160a01b031681526020015f60038111156103de576103de610e72565b815260200186868080601f0160208091040260200160405190810160405280939291908181526020018383808284375f9201829052509385525050426020808501829052604094850191909152878352600280825292849020855181559085015160018201559284015191830180546001600160a01b031981166001600160a01b0390941693841782556060860151939192506001600160a81b03191617600160a01b83600381111561049357610493610e72565b0217905550608082015160038201906104ac90826110c9565b5060a082015160048083019190915560c0909201516005918201555f888152600360209081526040808320805460018181018355918552838520018990553380855295835281842080548083018255908552838520018990558b845293825280832085845290915290819020805460ff191690921790915551879085907fe789634050fac5902c190f21f773e24e24f24f64399ddae4084244cb04445c5a9061055a908a908a904290611184565b60405180910390a4505061056d60015f55565b9392505050565b6105b16040805160e0810182525f808252602082018190529181018290529060608201908152602001606081526020015f81526020015f81525090565b5f82815260026020818152604092839020835160e08101855281548152600182015492810192909252918201546001600160a01b03811693820193909352916060830190600160a01b900460ff16600381111561061057610610610e72565b600381111561062157610621610e72565b815260200160038201805461063590611045565b80601f016020809104026020016040519081016040528092919081815260200182805461066190611045565b80156106ac5780601f10610683576101008083540402835291602001916106ac565b820191905f5260205f20905b81548152906001019060200180831161068f57829003601f168201915b50505050508152602001600482015481526020016005820154815250509050919050565b6106d8610dbc565b5f818152600260208190526040909120908101546001600160a01b031661071257604051630bd94e9760e11b815260040160405180910390fd5b5f807f00000000000000000000000000000000000000000000000000000000000000006001600160a01b0316636efa440d84600101546040518263ffffffff1660e01b815260040161076691815260200190565b6040805180830381865afa158015610780573d5f803e3d5ffd5b505050506040513d601f19601f820116820180604052508101906107a49190610fdd565b90925090506001600160a01b03821633146107d257604051630836f21d60e21b815260040160405180910390fd5b5f6002840154600160a01b900460ff1660038111156107f3576107f3610e72565b146108115760405163148d4a7760e11b815260040160405180910390fd5b5f81600581111561082457610824610e72565b146108425760405163d76ebd0f60e01b815260040160405180910390fd5b60028301805460ff60a01b1916600160a01b17905542600584015560018301545f908152600360209081526040808320805482518185028101850190935280835291929091908301828280156108b557602002820191905f5260205f20905b8154815260200190600101908083116108a1575b505050505090505f5b81518110156109d957858282815181106108da576108da6111bb565b6020026020010151146109d1575f60025f8484815181106108fd576108fd6111bb565b602002602001015181526020019081526020015f2090505f600381111561092657610926610e72565b6002820154600160a01b900460ff16600381111561094657610946610e72565b036109cf57600281018054600160a11b60ff60a01b19821617909155426005830155600187015484516001600160a01b039092169185908590811061098d5761098d6111bb565b60200260200101517fddc6b393f1ca1c7473ae521d6c9475a04daaaf3837a945de616b09adfeec38d5426040516109c691815260200190565b60405180910390a45b505b6001016108be565b50600284015460018501546040514281526001600160a01b039092169187907fa78788289b7ec68d9e28f96a29e0c8c70bf56d6ed4838848e6acc9729e0924c49060200160405180910390a450505050610a3260015f55565b50565b5f81815260036020908152604091829020805483518184028101840190945280845260609392830182828015610a8857602002820191905f5260205f20905b815481526020019060010190808311610a74575b50505050509050919050565b610a9c610dbc565b5f818152600260208190526040909120908101546001600160a01b0316610ad657604051630bd94e9760e11b815260040160405180910390fd5b6001810154604051636efa440d60e01b81525f916001600160a01b037f00000000000000000000000000000000000000000000000000000000000000001691636efa440d91610b2b9160040190815260200190565b6040805180830381865afa158015610b45573d5f803e3d5ffd5b505050506040513d601f19601f82011682018060405250810190610b699190610fdd565b5090506001600160a01b0381163314610b9557604051630836f21d60e21b815260040160405180910390fd5b5f6002830154600160a01b900460ff166003811115610bb657610bb6610e72565b14610bd45760405163148d4a7760e11b815260040160405180910390fd5b600282018054600160a11b60ff60a01b19821617909155426005840181905560018401546040519182526001600160a01b03909216919085907fddc6b393f1ca1c7473ae521d6c9475a04daaaf3837a945de616b09adfeec38d59060200160405180910390a45050610a3260015f55565b6001600160a01b0381165f90815260046020908152604091829020805483518184028101840190945280845260609392830182828015610a8857602002820191905f5260205f2090815481526020019060010190808311610a745750505050509050919050565b610cb4610dbc565b5f818152600260208190526040909120908101546001600160a01b0316610cee57604051630bd94e9760e11b815260040160405180910390fd5b60028101546001600160a01b03163314610d1b57604051633832386960e11b815260040160405180910390fd5b5f6002820154600160a01b900460ff166003811115610d3c57610d3c610e72565b14610d5a5760405163148d4a7760e11b815260040160405180910390fd5b60028101805460ff60a01b1916600360a01b179055426005820181905560018201546040805192835251339285917fc12a3eaa7f7126530aadca3ccaa3c302e96123174cd32827f339a4c7b0200aad9181900360200190a450610a3260015f55565b60025f5403610dde57604051633ee5aeb560e01b815260040160405180910390fd5b60025f55565b5f805f60408486031215610df6575f80fd5b83359250602084013567ffffffffffffffff811115610e13575f80fd5b8401601f81018613610e23575f80fd5b803567ffffffffffffffff811115610e39575f80fd5b866020828401011115610e4a575f80fd5b939660209190910195509293505050565b5f60208284031215610e6b575f80fd5b5035919050565b634e487b7160e01b5f52602160045260245ffd5b5f81518084528060208401602086015e5f602082860101526020601f19601f83011685010191505092915050565b60208152815160208201526020820151604082015260018060a01b0360408301511660608201525f606083015160048110610efd57634e487b7160e01b5f52602160045260245ffd5b80608084015250608083015160e060a0840152610f1e610100840182610e86565b905060a084015160c084015260c084015160e08401528091505092915050565b602080825282518282018190525f918401906040840190835b81811015610f75578351835260209384019390920191600101610f57565b509095945050505050565b6001600160a01b0381168114610a32575f80fd5b5f60208284031215610fa4575f80fd5b813561056d81610f80565b5f8060408385031215610fc0575f80fd5b823591506020830135610fd281610f80565b809150509250929050565b5f8060408385031215610fee575f80fd5b8251610ff981610f80565b602084015190925060068110610fd2575f80fd5b5f6001820161102a57634e487b7160e01b5f52601160045260245ffd5b5060010190565b634e487b7160e01b5f52604160045260245ffd5b600181811c9082168061105957607f821691505b60208210810361107757634e487b7160e01b5f52602260045260245ffd5b50919050565b601f8211156110c457805f5260205f20601f840160051c810160208510156110a25750805b601f840160051c820191505b818110156110c1575f81556001016110ae565b50505b505050565b815167ffffffffffffffff8111156110e3576110e3611031565b6110f7816110f18454611045565b8461107d565b6020601f821160018114611129575f83156111125750848201515b5f19600385901b1c1916600184901b1784556110c1565b5f84815260208120601f198516915b828110156111585787850151825560209485019460019092019101611138565b508482101561117557868401515f19600387901b60f8161c191681555b50505050600190811b01905550565b60408152826040820152828460608301375f606084830101525f6060601f19601f8601168301019050826020830152949350505050565b634e487b7160e01b5f52603260045260245ffdfea264697066735822122029effa49505b542a03d8aa186d2d63ac60ff680663b8f33e78e79e32af0ac4d964736f6c634300081a0033","linkReferences":{}},"methodIdentifiers":{"acceptApplication(uint256)":"2084ea53","getApplication(uint256)":"1f2f4bfd","getFreelancerApplicationCount(address)":"89f18dd0","getFreelancerApplications(address)":"ce585184","getJobApplicationCount(uint256)":"8e359a3a","getJobApplications(uint256)":"747143b9","hasApplied(uint256,address)":"a39bf544","jobEscrow()":"b0d83db8","nextApplicationId()":"625338cb","rejectApplication(uint256)":"c5e83e97","submitApplication(uint256,string)":"09fd8d30","withdrawApplication(uint256)":"f1d5314a"},"id":28}