{"abi":[{"type":"constructor","inputs":[{"name":"treasuryAddr","type":"address","internalType":"address"}],"stateMutability":"nonpayable"},{"type":"function","name":"BASIS_POINTS","inputs":[],"outputs":[{"name":"","type":"uint256","internalType":"uint256"}],"stateMutability":"view"},{"type":"function","name":"DELIVERY_TIMEOUT","inputs":[],"outputs":[{"name":"","type":"uint256","internalType":"uint256"}],"stateMutability":"view"},{"type":"function","name":"MAX_PLATFORM_FEE_BPS","inputs":[],"outputs":[{"name":"","type":"uint256","internalType":"uint256"}],"stateMutability":"view"},{"type":"function","name":"OPEN_JOB_TIMEOUT","inputs":[],"outputs":[{"name":"","type":"uint256","internalType":"uint256"}],"stateMutability":"view"},{"type":"function","name":"accumulatedFees","inputs":[],"outputs":[{"name":"","type":"uint256","internalType":"uint256"}],"stateMutability":"view"},{"type":"function","name":"approveDelivery","inputs":[{"name":"jobId","type":"uint256","internalType":"uint256"}],"outputs":[],"stateMutability":"nonpayable"},{"type":"function","name":"assignFreelancer","inputs":[{"name":"jobId","type":"uint256","internalType":"uint256"},{"name":"freelancer","type":"address","internalType":"address"}],"outputs":[],"stateMutability":"nonpayable"},{"type":"function","name":"cancelJob","inputs":[{"name":"jobId","type":"uint256","internalType":"uint256"}],"outputs":[],"stateMutability":"nonpayable"},{"type":"function","name":"createJob","inputs":[{"name":"deadline","type":"uint256","internalType":"uint256"},{"name":"metadataURI","type":"string","internalType":"string"}],"outputs":[{"name":"jobId","type":"uint256","internalType":"uint256"}],"stateMutability":"payable"},{"type":"function","name":"getClientJobs","inputs":[{"name":"client","type":"address","internalType":"address"}],"outputs":[{"name":"","type":"uint256[]","internalType":"uint256[]"}],"stateMutability":"view"},{"type":"function","name":"getFreelancerJobs","inputs":[{"name":"freelancer","type":"address","internalType":"address"}],"outputs":[{"name":"","type":"uint256[]","internalType":"uint256[]"}],"stateMutability":"view"},{"type":"function","name":"getJob","inputs":[{"name":"jobId","type":"uint256","internalType":"uint256"}],"outputs":[{"name":"","type":"tuple","internalType":"struct IJobEscrow.Job","components":[{"name":"jobId","type":"uint256","internalType":"uint256"},{"name":"client","type":"address","internalType":"address"},{"name":"freelancer","type":"address","internalType":"address"},{"name":"budget","type":"uint256","internalType":"uint256"},{"name":"deadline","type":"uint256","internalType":"uint256"},{"name":"status","type":"uint8","internalType":"enum IJobEscrow.JobStatus"},{"name":"metadataURI","type":"string","internalType":"string"},{"name":"createdAt","type":"uint256","internalType":"uint256"},{"name":"deliveredAt","type":"uint256","internalType":"uint256"},{"name":"deliverableURI","type":"string","internalType":"string"}]}],"stateMutability":"view"},{"type":"function","name":"getJobForValidation","inputs":[{"name":"jobId","type":"uint256","internalType":"uint256"}],"outputs":[{"name":"client","type":"address","internalType":"address"},{"name":"status","type":"uint8","internalType":"enum IJobEscrow.JobStatus"}],"stateMutability":"view"},{"type":"function","name":"getUserStats","inputs":[{"name":"user","type":"address","internalType":"address"}],"outputs":[{"name":"","type":"tuple","internalType":"struct IJobFactory.UserStats","components":[{"name":"jobsPosted","type":"uint256","internalType":"uint256"},{"name":"jobsCompleted","type":"uint256","internalType":"uint256"},{"name":"jobsCancelled","type":"uint256","internalType":"uint256"},{"name":"totalEarned","type":"uint256","internalType":"uint256"},{"name":"totalSpent","type":"uint256","internalType":"uint256"}]}],"stateMutability":"view"},{"type":"function","name":"handleTimeout","inputs":[{"name":"jobId","type":"uint256","internalType":"uint256"}],"outputs":[],"stateMutability":"nonpayable"},{"type":"function","name":"isPaused","inputs":[],"outputs":[{"name":"","type":"bool","internalType":"bool"}],"stateMutability":"view"},{"type":"function","name":"minBudget","inputs":[],"outputs":[{"name":"","type":"uint256","internalType":"uint256"}],"stateMutability":"view"},{"type":"function","name":"owner","inputs":[],"outputs":[{"name":"","type":"address","internalType":"address"}],"stateMutability":"view"},{"type":"function","name":"pause","inputs":[],"outputs":[],"stateMutability":"nonpayable"},{"type":"function","name":"platformFeeBps","inputs":[],"outputs":[{"name":"","type":"uint256","internalType":"uint256"}],"stateMutability":"view"},{"type":"function","name":"raiseDispute","inputs":[{"name":"jobId","type":"uint256","internalType":"uint256"}],"outputs":[],"stateMutability":"nonpayable"},{"type":"function","name":"renounceOwnership","inputs":[],"outputs":[],"stateMutability":"nonpayable"},{"type":"function","name":"requestRevision","inputs":[{"name":"jobId","type":"uint256","internalType":"uint256"},{"name":"reason","type":"string","internalType":"string"}],"outputs":[],"stateMutability":"nonpayable"},{"type":"function","name":"setMinBudget","inputs":[{"name":"newMinBudget","type":"uint256","internalType":"uint256"}],"outputs":[],"stateMutability":"nonpayable"},{"type":"function","name":"setPlatformFee","inputs":[{"name":"newFeeBps","type":"uint256","internalType":"uint256"}],"outputs":[],"stateMutability":"nonpayable"},{"type":"function","name":"setTreasury","inputs":[{"name":"newTreasury","type":"address","internalType":"address"}],"outputs":[],"stateMutability":"nonpayable"},{"type":"function","name":"submitDeliverable","inputs":[{"name":"jobId","type":"uint256","internalType":"uint256"},{"name":"deliverableURI","type":"string","internalType":"string"}],"outputs":[],"stateMutability":"nonpayable"},{"type":"function","name":"totalJobs","inputs":[],"outputs":[{"name":"","type":"uint256","internalType":"uint256"}],"stateMutability":"view"},{"type":"function","name":"transferOwnership","inputs":[{"name":"newOwner","type":"address","internalType":"address"}],"outputs":[],"stateMutability":"nonpayable"},{"type":"function","name":"treasury","inputs":[],"outputs":[{"name":"","type":"address","internalType":"address"}],"stateMutability":"view"},{"type":"function","name":"unpause","inputs":[],"outputs":[],"stateMutability":"nonpayable"},{"type":"function","name":"withdrawFees","inputs":[],"outputs":[],"stateMutability":"nonpayable"},{"type":"event","name":"DeliverableSubmitted","inputs":[{"name":"jobId","type":"uint256","indexed":true,"internalType":"uint256"},{"name":"freelancer","type":"address","indexed":true,"internalType":"address"},{"name":"deliverableURI","type":"string","indexed":false,"internalType":"string"},{"name":"timestamp","type":"uint256","indexed":false,"internalType":"uint256"}],"anonymous":false},{"type":"event","name":"FeesCollected","inputs":[{"name":"treasury","type":"address","indexed":true,"internalType":"address"},{"name":"amount","type":"uint256","indexed":false,"internalType":"uint256"}],"anonymous":false},{"type":"event","name":"FreelancerAssigned","inputs":[{"name":"jobId","type":"uint256","indexed":true,"internalType":"uint256"},{"name":"freelancer","type":"address","indexed":true,"internalType":"address"},{"name":"timestamp","type":"uint256","indexed":false,"internalType":"uint256"}],"anonymous":false},{"type":"event","name":"FundsReleased","inputs":[{"name":"jobId","type":"uint256","indexed":true,"internalType":"uint256"},{"name":"recipient","type":"address","indexed":true,"internalType":"address"},{"name":"amount","type":"uint256","indexed":false,"internalType":"uint256"},{"name":"platformFee","type":"uint256","indexed":false,"internalType":"uint256"}],"anonymous":false},{"type":"event","name":"JobApproved","inputs":[{"name":"jobId","type":"uint256","indexed":true,"internalType":"uint256"},{"name":"client","type":"address","indexed":true,"internalType":"address"},{"name":"freelancer","type":"address","indexed":true,"internalType":"address"},{"name":"timestamp","type":"uint256","indexed":false,"internalType":"uint256"}],"anonymous":false},{"type":"event","name":"JobCancelled","inputs":[{"name":"jobId","type":"uint256","indexed":true,"internalType":"uint256"},{"name":"cancelledBy","type":"address","indexed":true,"internalType":"address"},{"name":"timestamp","type":"uint256","indexed":false,"internalType":"uint256"}],"anonymous":false},{"type":"event","name":"JobCreated","inputs":[{"name":"jobId","type":"uint256","indexed":true,"internalType":"uint256"},{"name":"client","type":"address","indexed":true,"internalType":"address"},{"name":"budget","type":"uint256","indexed":false,"internalType":"uint256"},{"name":"deadline","type":"uint256","indexed":false,"internalType":"uint256"},{"name":"metadataURI","type":"string","indexed":false,"internalType":"string"}],"anonymous":false},{"type":"event","name":"JobDisputed","inputs":[{"name":"jobId","type":"uint256","indexed":true,"internalType":"uint256"},{"name":"disputedBy","type":"address","indexed":true,"internalType":"address"},{"name":"timestamp","type":"uint256","indexed":false,"internalType":"uint256"}],"anonymous":false},{"type":"event","name":"MinBudgetUpdated","inputs":[{"name":"oldMin","type":"uint256","indexed":false,"internalType":"uint256"},{"name":"newMin","type":"uint256","indexed":false,"internalType":"uint256"}],"anonymous":false},{"type":"event","name":"OwnershipTransferred","inputs":[{"name":"previousOwner","type":"address","indexed":true,"internalType":"address"},{"name":"newOwner","type":"address","indexed":true,"internalType":"address"}],"anonymous":false},{"type":"event","name":"Paused","inputs":[{"name":"by","type":"address","indexed":true,"internalType":"address"},{"name":"timestamp","type":"uint256","indexed":false,"internalType":"uint256"}],"anonymous":false},{"type":"event","name":"PlatformFeeUpdated","inputs":[{"name":"oldFee","type":"uint256","indexed":false,"internalType":"uint256"},{"name":"newFee","type":"uint256","indexed":false,"internalType":"uint256"}],"anonymous":false},{"type":"event","name":"RevisionRequested","inputs":[{"name":"jobId","type":"uint256","indexed":true,"internalType":"uint256"},{"name":"client","type":"address","indexed":true,"internalType":"address"},{"name":"reason","type":"string","indexed":false,"internalType":"string"},{"name":"timestamp","type":"uint256","indexed":false,"internalType":"uint256"}],"anonymous":false},{"type":"event","name":"TreasuryUpdated","inputs":[{"name":"oldTreasury","type":"address","indexed":false,"internalType":"address"},{"name":"newTreasury","type":"address","indexed":false,"internalType":"address"}],"anonymous":false},{"type":"event","name":"Unpaused","inputs":[{"name":"by","type":"address","indexed":true,"internalType":"address"},{"name":"timestamp","type":"uint256","indexed":false,"internalType":"uint256"}],"anonymous":false},{"type":"error","name":"BudgetTooLow","inputs":[]},{"type":"error","name":"CannotApplyToOwnJob","inputs":[]},{"type":"error","name":"ContractNotPaused","inputs":[]},{"type":"error","name":"ContractPaused","inputs":[]},{"type":"error","name":"DeadlinePassed","inputs":[]},{"type":"error","name":"FeeTooHigh","inputs":[]},{"type":"error","name":"FreelancerAlreadyAssigned","inputs":[]},{"type":"error","name":"InvalidDeadline","inputs":[]},{"type":"error","name":"InvalidJobStatus","inputs":[]},{"type":"error","name":"InvalidTreasury","inputs":[]},{"type":"error","name":"JobNotFound","inputs":[]},{"type":"error","name":"JobTimedOut","inputs":[]},{"type":"error","name":"MinBudgetTooLow","inputs":[]},{"type":"error","name":"NotClient","inputs":[]},{"type":"error","name":"NotFreelancer","inputs":[]},{"type":"error","name":"NotOwner","inputs":[]},{"type":"error","name":"OwnableInvalidOwner","inputs":[{"name":"owner","type":"address","internalType":"address"}]},{"type":"error","name":"OwnableUnauthorizedAccount","inputs":[{"name":"account","type":"address","internalType":"address"}]},{"type":"error","name":"ReentrancyGuardReentrantCall","inputs":[]},{"type":"error","name":"TransferFailed","inputs":[]}],"bytecode":{"object":"0x608060405261012c600255655af3107a400060035534801561001f575f80fd5b5060405161233a38038061233a83398101604081905261003e9161010c565b338061006357604051631e4fbdf760e01b81525f600482015260240160405180910390fd5b61006c816100bd565b50600180556001600160a01b038116610098576040516302979eb960e31b815260040160405180910390fd5b600480546001600160a01b0319166001600160a01b0392909216919091179055610139565b5f80546001600160a01b038381166001600160a01b0319831681178455604051919092169283917f8be0079c531659141344cd1fd0a4f28419497f9722a3daafe3b4186f6b6457e09190a35050565b5f6020828403121561011c575f80fd5b81516001600160a01b0381168114610132575f80fd5b9392505050565b6121f4806101465f395ff3fe6080604052600436106101db575f3560e01c80638456cb59116100fd578063bf22c45711610092578063cf2646c211610062578063cf2646c214610576578063e1f1c4a714610595578063f0f44260146105aa578063f2fde38b146105c9575f80fd5b8063bf22c457146104f6578063c732bcd214610522578063c949756c14610538578063c94b674b14610557575f80fd5b8063a5c1674e116100cd578063a5c1674e14610483578063ad0b9168146104a2578063b187bd26146104b5578063b4f36264146104d7575f80fd5b80638456cb591461041f5780638d01513c146104335780638da5cb5b14610448578063a36697d314610464575f80fd5b80634e43603a116101735780636c8a72ee116101435780636c8a72ee146103825780636efa440d14610398578063715018a6146103ec57806382096ec314610400575f80fd5b80634e43603a146102be578063587f5ed71461031e5780635e29172f1461033257806361d027b314610351575f80fd5b806328901492116101ae57806328901492146102565780633f4ba83a1461026a57806340f70be41461027e578063476343ee146102aa575f80fd5b806312e8e2c3146101df5780631ace87b3146102005780631dffa3dc1461022357806322dcd13e14610242575b5f80fd5b3480156101ea575f80fd5b506101fe6101f9366004611c46565b6105e8565b005b34801561020b575f80fd5b506007545b6040519081526020015b60405180910390f35b34801561022e575f80fd5b506101fe61023d366004611c46565b610654565b34801561024d575f80fd5b50600254610210565b348015610261575f80fd5b50600354610210565b348015610275575f80fd5b506101fe6107fd565b348015610289575f80fd5b5061029d610298366004611c78565b610847565b60405161021a9190611c91565b3480156102b5575f80fd5b506101fe6108b0565b3480156102c9575f80fd5b506102dd6102d8366004611c78565b61098c565b60405161021a91905f60a082019050825182526020830151602083015260408301516040830152606083015160608301526080830151608083015292915050565b348015610329575f80fd5b50600554610210565b34801561033d575f80fd5b506101fe61034c366004611cd3565b610a10565b34801561035c575f80fd5b506004546001600160a01b03165b6040516001600160a01b03909116815260200161021a565b34801561038d575f80fd5b5061021062278d0081565b3480156103a3575f80fd5b506103de6103b2366004611c46565b5f90815260086020526040902060018101546005909101546001600160a01b039091169160ff90911690565b60405161021a929190611d7e565b3480156103f7575f80fd5b506101fe610b54565b34801561040b575f80fd5b506101fe61041a366004611c46565b610b65565b34801561042a575f80fd5b506101fe610bce565b34801561043e575f80fd5b506102106103e881565b348015610453575f80fd5b505f546001600160a01b031661036a565b34801561046f575f80fd5b506101fe61047e366004611cd3565b610c17565b34801561048e575f80fd5b506101fe61049d366004611c46565b610d2e565b6102106104b0366004611cd3565b610e8a565b3480156104c0575f80fd5b5060065460ff16604051901515815260200161021a565b3480156104e2575f80fd5b506101fe6104f1366004611c46565b6110fe565b348015610501575f80fd5b50610515610510366004611c46565b611383565b60405161021a9190611dc9565b34801561052d575f80fd5b5061021062093a8081565b348015610543575f80fd5b506101fe610552366004611e86565b6115a1565b348015610562575f80fd5b506101fe610571366004611c46565b611753565b348015610581575f80fd5b5061029d610590366004611c78565b611888565b3480156105a0575f80fd5b5061021061271081565b3480156105b5575f80fd5b506101fe6105c4366004611c78565b6118ef565b3480156105d4575f80fd5b506101fe6105e3366004611c78565b611987565b6105f06119c6565b6103e88111156106135760405163cd4e616760e01b815260040160405180910390fd5b60025460408051918252602082018390527fd347e206f25a89b917fc9482f1a2d294d749baa4dc9bde7fb495ee11fe491643910160405180910390a1600255565b60065460ff16156106785760405163ab35696f60e01b815260040160405180910390fd5b6106806119f2565b5f81815260086020526040902060018101546001600160a01b03166106b85760405163c0a8563160e01b815260040160405180910390fd5b60018101546001600160a01b031633146106e557604051630836f21d60e21b815260040160405180910390fd5b5f60058083015460ff16908111156106ff576106ff611d4a565b1461071d5760405163b969563b60e01b815260040160405180910390fd5b6005818101805460ff19169091179055335f908152600b6020526040812060020180549161074a83611ec4565b909155505060038101546040515f9133918381818185875af1925050503d805f8114610791576040519150601f19603f3d011682016040523d82523d5f602084013e610796565b606091505b50509050806107b8576040516312171d8360e31b815260040160405180910390fd5b604051428152339084907fa80c76c474b34cc7af71dec63d733b959fff08f4eb0789e288be5db6b608f9429060200160405180910390a350506107fa60018055565b50565b6108056119c6565b6006805460ff1916905560405142815233907f3582d1828e26bf56bd801502bc021ac0bc8afb57c826e4986b45593c8fad389c906020015b60405180910390a2565b6001600160a01b0381165f908152600a60209081526040918290208054835181840281018401909452808452606093928301828280156108a457602002820191905f5260205f20905b815481526020019060010190808311610890575b50505050509050919050565b6108b86119c6565b6108c06119f2565b600580545f918290556004546040519192916001600160a01b039091169083908381818185875af1925050503d805f8114610916576040519150601f19603f3d011682016040523d82523d5f602084013e61091b565b606091505b505090508061093d576040516312171d8360e31b815260040160405180910390fd5b6004546040518381526001600160a01b03909116907f9dc46f23cfb5ddcad0ae7ea2be38d47fec07bb9382ec7e564efc69e036dd66ce9060200160405180910390a2505061098a60018055565b565b6109b96040518060a001604052805f81526020015f81526020015f81526020015f81526020015f81525090565b506001600160a01b03165f908152600b6020908152604091829020825160a0810184528154815260018201549281019290925260028101549282019290925260038201546060820152600490910154608082015290565b60065460ff1615610a345760405163ab35696f60e01b815260040160405180910390fd5b610a3c6119f2565b5f83815260086020526040902060018101546001600160a01b0316610a745760405163c0a8563160e01b815260040160405180910390fd5b60028101546001600160a01b03163314610aa157604051633832386960e11b815260040160405180910390fd5b600160058083015460ff1690811115610abc57610abc611d4a565b14610ada5760405163b969563b60e01b815260040160405180910390fd5b60058101805460ff1916600217905542600882015560098101610afe838583611f73565b50336001600160a01b0316847f1ec04bff6480b4dc381bc7a3610956ee9c98b3fc0f1f024784c032eed378e3e2858542604051610b3d93929190612055565b60405180910390a350610b4f60018055565b505050565b610b5c6119c6565b61098a5f611a1c565b610b6d6119c6565b805f03610b8d57604051631fda26eb60e31b815260040160405180910390fd5b60035460408051918252602082018390527f4bb09e1e9c62c48b9c82256be3472503391c475e24bd82c24822855062d132e8910160405180910390a1600355565b610bd66119c6565b6006805460ff1916600117905560405133907fab40a374bc51de372200a8bc981af8c9ecdc08dfdaef0bb6e09f88f3c616ef3d9061083d9042815260200190565b60065460ff1615610c3b5760405163ab35696f60e01b815260040160405180910390fd5b610c436119f2565b5f83815260086020526040902060018101546001600160a01b0316610c7b5760405163c0a8563160e01b815260040160405180910390fd5b60018101546001600160a01b03163314610ca857604051630836f21d60e21b815260040160405180910390fd5b600260058083015460ff1690811115610cc357610cc3611d4a565b14610ce15760405163b969563b60e01b815260040160405180910390fd5b60058101805460ff191660011790555f6008820155604051339085907f933d33a998223924fbc9cb10c02e84433c84240851fea5c848928195fd23901190610b3d90879087904290612055565b60065460ff1615610d525760405163ab35696f60e01b815260040160405180910390fd5b610d5a6119f2565b5f81815260086020526040902060018101546001600160a01b0316610d925760405163c0a8563160e01b815260040160405180910390fd5b60018101546001600160a01b03163314801590610dbc575060028101546001600160a01b03163314155b15610dda5760405163b969563b60e01b815260040160405180910390fd5b600160058083015460ff1690811115610df557610df5611d4a565b14158015610e1c5750600260058083015460ff1690811115610e1957610e19611d4a565b14155b15610e3a5760405163b969563b60e01b815260040160405180910390fd5b60058101805460ff19166004179055604051428152339083907ff64f2ddc84be57c7f6b79942e5920ce234452a66d80d0b84bc90e485a688cab79060200160405180910390a3506107fa60018055565b6006545f9060ff1615610eb05760405163ab35696f60e01b815260040160405180910390fd5b610eb86119f2565b600354341015610edb57604051630c1794cf60e21b815260040160405180910390fd5b428411610efb57604051631da7447960e21b815260040160405180910390fd5b60078054905f610f0a83611ec4565b9091555060408051610140810182528281523360208201525f9181018290523460608201526080810187905291925060a0820190815260200184848080601f0160208091040260200160405190810160405280939291908181526020018383808284375f92018290525093855250504260208085019190915260408085018490528051808301825284815260609586015286845260088252928390208551815590850151600180830180546001600160a01b039384166001600160a01b03199182161790915594870151600284018054919093169516949094179055928401516003840155506080830151600483015560a0830151600580840180549293909260ff191691849081111561102057611020611d4a565b021790555060c082015160068201906110399082612078565b5060e08201516007820155610100820151600882015561012082015160098201906110649082612078565b5050335f818152600960209081526040808320805460018101825590845282842001869055928252600b905290812080549250906110a183611ec4565b9190505550336001600160a01b0316817fa2a5b1a0547724f73a195d5b3a697af47e5e8d5b97c31abd385d2e170e9a5b48348787876040516110e69493929190612133565b60405180910390a36110f760018055565b9392505050565b60065460ff16156111225760405163ab35696f60e01b815260040160405180910390fd5b61112a6119f2565b5f81815260086020526040902060018101546001600160a01b03166111625760405163c0a8563160e01b815260040160405180910390fd5b5f60058083015460ff169081111561117c5761117c611d4a565b036112a75762278d008160070154611194919061215c565b4210156111b45760405163b969563b60e01b815260040160405180910390fd5b6005818101805460ff1916909117905560018101546001600160a01b03165f908152600b602052604081206002018054916111ee83611ec4565b9091555050600181015460038201546040515f926001600160a01b031691908381818185875af1925050503d805f8114611243576040519150601f19603f3d011682016040523d82523d5f602084013e611248565b606091505b505090508061126a576040516312171d8360e31b815260040160405180910390fd5b604051428152309084907fa80c76c474b34cc7af71dec63d733b959fff08f4eb0789e288be5db6b608f9429060200160405180910390a350611379565b600260058083015460ff16908111156112c2576112c2611d4a565b036113605762093a8081600801546112da919061215c565b4210156112fa5760405163b969563b60e01b815260040160405180910390fd5b60058101805460ff191660031790556113138282611a6b565b60028101546040514281526001600160a01b0390911690309084907f125035bcd6e47235bdf9cc348c11324950b6869c25fb32efdb925d926078f0b09060200160405180910390a4611379565b60405163b969563b60e01b815260040160405180910390fd5b506107fa60018055565b6113d660408051610140810182525f8082526020820181905291810182905260608101829052608081018290529060a08201908152602001606081526020015f81526020015f8152602001606081525090565b5f828152600860209081526040918290208251610140810184528154815260018201546001600160a01b0390811693820193909352600282015490921692820192909252600382015460608201526004820154608082015260058083015491929160a084019160ff9091169081111561145157611451611d4a565b600581111561146257611462611d4a565b815260200160068201805461147690611ef0565b80601f01602080910402602001604051908101604052809291908181526020018280546114a290611ef0565b80156114ed5780601f106114c4576101008083540402835291602001916114ed565b820191905f5260205f20905b8154815290600101906020018083116114d057829003601f168201915b50505050508152602001600782015481526020016008820154815260200160098201805461151a90611ef0565b80601f016020809104026020016040519081016040528092919081815260200182805461154690611ef0565b80156115915780601f1061156857610100808354040283529160200191611591565b820191905f5260205f20905b81548152906001019060200180831161157457829003601f168201915b5050505050815250509050919050565b60065460ff16156115c55760405163ab35696f60e01b815260040160405180910390fd5b6115cd6119f2565b5f82815260086020526040902060018101546001600160a01b03166116055760405163c0a8563160e01b815260040160405180910390fd5b60018101546001600160a01b0316331461163257604051630836f21d60e21b815260040160405180910390fd5b5f60058083015460ff169081111561164c5761164c611d4a565b1461166a5760405163b969563b60e01b815260040160405180910390fd5b336001600160a01b0383160361169357604051637e91de0760e01b815260040160405180910390fd5b60028101546001600160a01b0316156116bf5760405163fa94539960e01b815260040160405180910390fd5b6002810180546001600160a01b0319166001600160a01b03841690811790915560058201805460ff191660019081179091555f828152600a60209081526040808320805494850181558352918190209092018690555142815285917fdd33626ddad41a9d8289ee8abbbd0b8f5a72a0e1e8661ef3ab9774ed4cf6a276910160405180910390a35061174f60018055565b5050565b60065460ff16156117775760405163ab35696f60e01b815260040160405180910390fd5b61177f6119f2565b5f81815260086020526040902060018101546001600160a01b03166117b75760405163c0a8563160e01b815260040160405180910390fd5b60018101546001600160a01b031633146117e457604051630836f21d60e21b815260040160405180910390fd5b600260058083015460ff16908111156117ff576117ff611d4a565b1461181d5760405163b969563b60e01b815260040160405180910390fd5b60058101805460ff191660031790556118368282611a6b565b60028101546040514281526001600160a01b0390911690339084907f125035bcd6e47235bdf9cc348c11324950b6869c25fb32efdb925d926078f0b09060200160405180910390a4506107fa60018055565b6001600160a01b0381165f908152600960209081526040918290208054835181840281018401909452808452606093928301828280156108a457602002820191905f5260205f20908154815260200190600101908083116108905750505050509050919050565b6118f76119c6565b6001600160a01b03811661191e576040516302979eb960e31b815260040160405180910390fd5b600454604080516001600160a01b03928316815291831660208301527f4ab5be82436d353e61ca18726e984e561f5c1cc7c6d38b29d2553c790434705a910160405180910390a1600480546001600160a01b0319166001600160a01b0392909216919091179055565b61198f6119c6565b6001600160a01b0381166119bd57604051631e4fbdf760e01b81525f60048201526024015b60405180910390fd5b6107fa81611a1c565b5f546001600160a01b0316331461098a5760405163118cdaa760e01b81523360048201526024016119b4565b600260015403611a1557604051633ee5aeb560e01b815260040160405180910390fd5b6002600155565b5f80546001600160a01b038381166001600160a01b0319831681178455604051919092169283917f8be0079c531659141344cd1fd0a4f28419497f9722a3daafe3b4186f6b6457e09190a35050565b5f6127106002548360030154611a819190612175565b611a8b919061218c565b90505f818360030154611a9e91906121ab565b90508160055f828254611ab1919061215c565b9091555050600383015460018401546001600160a01b03165f908152600b602052604081206004018054909190611ae990849061215c565b909155505060028301546001600160a01b03165f908152600b602052604081206003018054839290611b1c90849061215c565b90915550506001808401546001600160a01b03165f908152600b60205260408120909101805491611b4c83611ec4565b909155505060028301546001600160a01b03165f908152600b60205260408120600101805491611b7b83611ec4565b909155505060028301546040515f916001600160a01b03169083908381818185875af1925050503d805f8114611bcc576040519150601f19603f3d011682016040523d82523d5f602084013e611bd1565b606091505b5050905080611bf3576040516312171d8360e31b815260040160405180910390fd5b600284015460408051848152602081018690526001600160a01b039092169187917f93e901cc5aea20ea9655887d9290a3215a5b3999c024812f4e4b749f7534349c910160405180910390a35050505050565b5f60208284031215611c56575f80fd5b5035919050565b80356001600160a01b0381168114611c73575f80fd5b919050565b5f60208284031215611c88575f80fd5b6110f782611c5d565b602080825282518282018190525f918401906040840190835b81811015611cc8578351835260209384019390920191600101611caa565b509095945050505050565b5f805f60408486031215611ce5575f80fd5b83359250602084013567ffffffffffffffff811115611d02575f80fd5b8401601f81018613611d12575f80fd5b803567ffffffffffffffff811115611d28575f80fd5b866020828401011115611d39575f80fd5b939660209190910195509293505050565b634e487b7160e01b5f52602160045260245ffd5b60068110611d7a57634e487b7160e01b5f52602160045260245ffd5b9052565b6001600160a01b0383168152604081016110f76020830184611d5e565b5f81518084528060208401602086015e5f602082860101526020601f19601f83011685010191505092915050565b60208152815160208201525f6020830151611def60408401826001600160a01b03169052565b5060408301516001600160a01b03811660608401525060608301516080830152608083015160a083015260a0830151611e2b60c0840182611d5e565b5060c083015161014060e0840152611e47610160840182611d9b565b905060e0840151610100840152610100840151610120840152610120840151601f1984830301610140850152611e7d8282611d9b565b95945050505050565b5f8060408385031215611e97575f80fd5b82359150611ea760208401611c5d565b90509250929050565b634e487b7160e01b5f52601160045260245ffd5b5f60018201611ed557611ed5611eb0565b5060010190565b634e487b7160e01b5f52604160045260245ffd5b600181811c90821680611f0457607f821691505b602082108103611f2257634e487b7160e01b5f52602260045260245ffd5b50919050565b601f821115610b4f57805f5260205f20601f840160051c81016020851015611f4d5750805b601f840160051c820191505b81811015611f6c575f8155600101611f59565b5050505050565b67ffffffffffffffff831115611f8b57611f8b611edc565b611f9f83611f998354611ef0565b83611f28565b5f601f841160018114611fd0575f8515611fb95750838201355b5f19600387901b1c1916600186901b178355611f6c565b5f83815260208120601f198716915b82811015611fff5786850135825560209485019460019092019101611fdf565b508682101561201b575f1960f88860031b161c19848701351681555b505060018560011b0183555050505050565b81835281816020850137505f828201602090810191909152601f909101601f19169091010190565b604081525f61206860408301858761202d565b9050826020830152949350505050565b815167ffffffffffffffff81111561209257612092611edc565b6120a6816120a08454611ef0565b84611f28565b6020601f8211600181146120d8575f83156120c15750848201515b5f19600385901b1c1916600184901b178455611f6c565b5f84815260208120601f198516915b8281101561210757878501518255602094850194600190920191016120e7565b508482101561212457868401515f19600387901b60f8161c191681555b50505050600190811b01905550565b848152836020820152606060408201525f61215260608301848661202d565b9695505050505050565b8082018082111561216f5761216f611eb0565b92915050565b808202811582820484141761216f5761216f611eb0565b5f826121a657634e487b7160e01b5f52601260045260245ffd5b500490565b8181038181111561216f5761216f611eb056fea264697066735822122004c5d43d7995164bf11802533743ff8df6062d0d87f2428536e9c999615e35d964736f6c634300081a0033","linkReferences":{}},"methodIdentifiers":{"BASIS_POINTS()":"e1f1c4a7","DELIVERY_TIMEOUT()":"c732bcd2","MAX_PLATFORM_FEE_BPS()":"8d01513c","OPEN_JOB_TIMEOUT()":"6c8a72ee","accumulatedFees()":"587f5ed7","approveDelivery(uint256)":"c94b674b","assignFreelancer(uint256,address)":"c949756c","cancelJob(uint256)":"1dffa3dc","createJob(uint256,string)":"ad0b9168","getClientJobs(address)":"cf2646c2","getFreelancerJobs(address)":"40f70be4","getJob(uint256)":"bf22c457","getJobForValidation(uint256)":"6efa440d","getUserStats(address)":"4e43603a","handleTimeout(uint256)":"b4f36264","isPaused()":"b187bd26","minBudget()":"28901492","owner()":"8da5cb5b","pause()":"8456cb59","platformFeeBps()":"22dcd13e","raiseDispute(uint256)":"a5c1674e","renounceOwnership()":"715018a6","requestRevision(uint256,string)":"a36697d3","setMinBudget(uint256)":"82096ec3","setPlatformFee(uint256)":"12e8e2c3","setTreasury(address)":"f0f44260","submitDeliverable(uint256,string)":"5e29172f","totalJobs()":"1ace87b3","transferOwnership(address)":"f2fde38b","treasury()":"61d027b3","unpause()":"3f4ba83a","withdrawFees()":"476343ee"},"id":31}